:1000000019C02BC02AC029C028C027C026C025C0BF
:1000100024C023C022C021C020C01FC01EC01DC0DC
:100020001CC01BC01AC019C018C017C016C015C00C
:1000300014C013C011241FBECFEFD4E0DEBFCDBF6C
:1000400011E0A0E0B1E0E8E4F3E002C005900D9219
:10005000A038B107D9F723D175C1D2CF83E38093FC
:10006000C4001092C50088E18093C10086E08093AF
:10007000C20008958091C00087FFFCCF8091C60028
:1000800008959091C00095FFFCCF8093C60008951D
:10009000CF93DF93EC018991882311F0F2DFFBCF3E
:1000A000DF91CF910895CF93DF93282F843698F076
:1000B00064E63CD1C22F94E6899FC0191124805D6B
:1000C000E0DF8C2F6AE032D1D82F80E38D0FD9DFAB
:1000D00080E38C0F0BC0C0E3C80F8A3060F06AE089
:1000E00025D1D82F80E38D0FCCDF8C2F9AE0D99FBC
:1000F0008019112401C08C2FDF91CF91C2CF44B160
:1001000021E030E0B90102C0660F771F8A95E2F75F
:10011000CB014862462B44B99CB593659CBD2A9A95
:1001200095B1892B85B908958EBD0DB407FEFDCF1D
:100130008EB50895ECE7F0E0808180668083EAE781
:10014000F0E08081876880838FEF80937E00089540
:1001500090917C00907F892B80937C0080917A0025
:10016000806480937A0080917A0084FFFCCF809134
:100170007A00806180937A00809179000895ECE79D
:10018000F0E09081907F892B8083EAE7F0E0808126
:10019000806480830895482F4C9BFECF5A985B98CB
:1001A0005D9A85E88A95F1F700005D9895E89A9543
:1001B000F1F7000027E030E080E050E070E0922F9F
:1001C000FA01022E02C0F595E7950A94E2F7E0FFE6
:1001D00002C05A9A01C05A98FB0102C0F595E795F2
:1001E0009A95E2F7E0FF02C05B9A01C05B9899B173
:1001F00092959170880F892B5D9A95E89A95F1F701
:1002000000005D9895E89A95F1F7000021503109BA
:10021000B0F65A985B985D9A95E89A95F1F70000C8
:100220005D9895E89A95F1F700005D9A95E89A95A2
:10023000F1F700005D9895E89A95F1F700000895B0
:10024000CF936CE484E0A7DF68E680E0A4DF6CE68F
:1002500080E0A1DFC82F80E091E01ADF8C2F23DF40
:100260006CE484E098DF6AE780E095DF6EE780E089
:1002700092DFC82F82E191E00BDF8C2F14DF6CE45A
:1002800084E089DF6AE680E086DF6EE680E083DF77
:10029000C82F84E291E0FCDE8C2FCF9104CF579AD7
:1002A000569A529A539A559A549A5E9AD7DE86E392
:1002B00091E0EEDE5A985B985C985E9A5F9A85E3CF
:1002C0008A95F1F700005E989AE19A95F1F700C0DF
:1002D000549887E592E00197F1F700C00000B0DF85
:1002E00085E491E0D5DE6CE480E455DF6CE28FEDCF
:1002F00052DF64E780E04FDF6CE780E04CDF85E5AC
:1003000091E0C6DE6CE480E446DF6CE282E643DF27
:1003100064E680E040DF6CE680E03DDF91DF85E66B
:1003200091E0B6DE5D985F985E9A0895991B79E03A
:1003300004C0991F961708F0961B881F7A95C9F775
:0803400080950895F894FFCFA9
:100348000A0D6C667573652072656164732061734C
:1003580020000A0D686675736520726561647320F4
:10036800617320000A0D65667573652072656164A6
:100378007320617320000A0D485650502048656C60
:100388006C6F0A0D000A0D57726974696E672068F0
:1003980066757365000A0D57726974696E67206C1B
:1003A80066757365000A0D45786974696E67207013
:1003B800726F6772616D6D696E67204D6F6465005D
:00000001FF
